:10000000020003758136120271E58260030200541A
:10001000758200758300758400758500780079000D
:10002000E8496012E475860093A3758601F0A31871
:10003000B8FFED1980EA7586007582007583007C33
:10004000007D01EC4D600AE4F0A31CBCFFF51D80AF
:10005000F212027012005980FEE4F5E8F59574D4AE
:10006000C0E07401C0E07480C0E07401C0E074813D
:10007000C0E0E4C0E012031AE58124FAF581908122
:100080000175F000120360AA82AB83908100EAF050
:10009000908100E0FA70F97425C0E07402C0E07449
:1000A00080C0E07401C0E07481C0E0E4C0E01203ED
:1000B0001AE58124FAF58190810175F00012036040
:1000C000AA82AB83908100EAF0908100E0FA70F997
:1000D0007435C0E07402C0E07480C0E07401C0E018
:1000E0007481C0E0E4C0E012031AE58124FAF581CE
:1000F00090810175F000120360AA82AB83908100A9
:10010000EAF0908100E0FA70F974D4C0E07401C0A4
:10011000E07480C0E07401C0E07481C0E0E4C0E03D
:1001200012031AE58124FAF58190810175F000121D
:100130000360AA82AB83908100EAF0908100E0FA2C
:1001400070F9744DC0E07402C0E07480C0E07401C6
:10015000C0E07481C0E0E4C0E012031AE58124FA33
:10016000F5817A007B00C3EA9464EB64809480504C
:1001700045C002C003C002C0037450C0E07402C096
:10018000E07480C0E07400C0E07400C0E0E4C0E04F
:1001900012031AE58124F8F58175100075110075B8
:1001A000120090810175F000120275D003D0020A8E
:1001B000BA00B30B80B09081007401F0908100E030
:1001C000FA70F922C0F9A4B0999282F880908883DD
:1001D000C6A1868E2A2A2A2A2A2A2A2A2A2A2A2AAC
:1001E0002A2A2A2A2A2A2A2A2A2A2A2A2A2A2A2A6F
:1001F0002A2A2A2A2A2A2A2A2A2A2A2A2A2A2A2A5F
:100200002A2A2A2A2A2A2A2A2A2A2A2A2A2A2A2A4E
:100210002A2A2A2A2A2A2A2A2A2A2A2A2A2A2A2A3E
:100220002A2A0D0A0048656C6C6F2C20576F726C7F
:1002300064210D0A00416E6F74686572206C696EEE
:100240006520666F7220796F75210D0A000D0A0016
:10025000546865206E756D62657220697320253063
:1002600033640D0A003C4E4F20464C4F41543E0033
:10027000227582002285821385831485F015AD13C3
:10028000AE14AF158D828E838FF012038860070D38
:10029000BD00F10E80EEA810A911AA128E048F03E2
:1002A000888289838AF0120388FEA3A882A9838D9D
:1002B000828C838BF0EE1203A4A3AD82AC83EE702C
:1002C000DF8513828514838515F022AA82AB09ACE1
:1002D0000AAD0B8B828C838DF0EA1203A40509E42E
:1002E000B50902050A2285820985830A85F00B85F6
:1002F0000C30850D31850E32850F339002CB120400
:1003000046AA82AB83AC09AD0AAE0B8C828D838E7C
:10031000F0E41203A48A828B8322C008858108E559
:100320000824F8F533E50824FBF8860908860A084E
:10033000860BE50824F8F886300886310886329066
:1003400002CB120446AA82AB83AC09AD0AAE0B8C79
:10035000828D838EF0E41203A48A828B83D00822DC
:10036000AA82AB83ACF07D007E008A828B838CF006
:10037000120388FFA3AA82AB83EF60070DBD00EADA
:100380000E80E78D828E832220F71430F614888346
:10039000A88220F507E6A88375830022E280F7E4AF
:1003A0009322E02220F71030F6118883A88220F5EE
:1003B00007F6A88375830022F280F7F022AA8274E0
:1003C000CEC0E07403C0E0C022C0238A8222052987
:1003D000E4B52902052A22AA8274302AFA24C650DA
:1003E0000A74072AFA3000034302208A820203BDFE
:1003F000E582FAC4540FF582C0021203D7D002740A
:100400000F5AF5820203D7AA24AB25AC26AD27AE3E
:1004100028752F20EE2EFEED235401FF4206EA2A16
:10042000FAEB33FBEC33FCED33FDC3EE952B4008C8
:10043000EEC3952BFE430201D52FD98A248B258C40
:10044000268D278E2822858222858323E4F529F5AF
:100450002AAA30AB31AC328A828B838CF0120388AB
:10046000FD74012AF530E43BF5318C32EDFA70036E
:100470000209D6BA250280030209CEC204C205C20F
:1004800006C207C208C209C20AC20BC201C202C226
:1004900003752B00752C00752DFFAB30AC31AD32E0
:1004A0008B828C838DF0120388FAA3AB82AC838B92
:1004B000308C318D32BA25078A821203BD80928A30
:1004C00006BE3000402E8A06EE24C6402774FFB5D3
:1004D0002D13E52C75F00AA4FEEA24D02EF52C701D
:1004E000BFD20580BBE52D75F00AA4FEEA24D02E0C
:1004F000F52D80ACBA2E0A74FFB52DA4752D0080A1
:100500009F8A06BE6100400E8A06EE24854007538E
:1005100002DFD2008002C200BA20028075BA230333
:100520000205A1BA2A030205A6BA2B02805FBA2DE2
:10053000028055BA4202805FBA43030205EBBA4417
:1005400003020726BA4503020740BA460302073CE6
:10055000BA4703020744BA4903020726BA4C02808D
:100560003BBA4E03020748BA4F0302072DBA5003A5
:100570000206BFBA530302060FBA5503020732BA86
:100580005803020737020772D2040204A0D20602FF
:1005900004A0D2070204A0D2090204A0D20A0204D5
:1005A000A0D20B0204A074FFB52D2030090BE53357
:1005B00014F88833862C0204A0E53324FEF888332F
:1005C0008606088607188E2C0204A030090BE53336
:1005D00014F88833862D0204A0E53324FEF888330E
:1005E0008606088607188E2D0204A030090AE53316
:1005F00014F888338602800FE53324FEF8883386AA
:1006000003088604188B028A821203BD020777E56D
:100610003324FDF8883386030886040886051818F5
:100620008B248C258D268B828C838DF0120360ABFE
:1006300082AC838B2E74FFB52D03852E2D20041DD7
:10064000C3E52E952C5016E52CC3952EF52CAB2C1E
:10065000152CEB60087582201203BD80F185248281
:100660008525838526F0120388FBFA6029AB2D15BA
:100670002DC3E464808BF063F08095F050188A827B
:100680001203BDAB24AC25AD260BBB00010C8B24A3
:100690008C258D2680C7200403020777C3E52E959D
:1006A0002C4003020777E52CC3952EF52CAB2C15B7
:1006B0002CEB70030207777582201203BD80EEE5F4
:1006C0003324FDF888338603088604088605181845
:1006D0008B248C258D26E526FB30E7047A43801396
:1006E000EB546060047A50800AEB30E6047A49806B
:1006F000027A588A82C0021203BD75823A1203BD83
:100700007582301203BD7582781203BDD002BA49DA
:1007100002800BBA500280068525821203F08524E0
:10072000821203F08051D208752B0A804A752B087B
:100730008045752B0A8040752B10803BD201803795
:10074000D2028033D203802FE53324FDF88833862C
:100750000308860408860518188B248C258D268BA3
:10076000828C838DF0E5291203A4A3E52A1203A449
:1007700080058A821203BD20010620020330035A3D
:10078000E53324FCF88833860308860408860508C8
:1007900086061818188B248C258D268E27752465BF
:1007A0007525027526808524348525358526367481
:1007B000012534FEE43535FFAB368E248F258B269C
:1007C0008534828535838536F0120388FBFA700301
:1007D0000204518A821203BD80CCE52B700302040F
:1007E000517B1B30092BE53314F88833E6FC339535
:1007F000E0FDFEFF8C248D258E268F2720085EAC21
:10080000247D007E007F008C248D258E268F2780FE
:100810004C300A1FE53324FCF8883386040886052B
:100820000886060886071818188C248D258E268FB2
:1008300027802AE53324FEF88833860408860518C5
:10084000ED3395E0FEFF8C248D258E268F27200822
:100850000CAC24AD257E007F008E268F27300B4305
:10086000E52445254526452760397408B52B0C75C8
:100870008230C0031203BDD00380287410B52B232F
:10088000758230C0031203BDD00330000C7582782E
:10089000C0031203BDD003800A758258C00312033F
:1008A000BDD003300825AC24AD25AE26E527FF30AA
:1008B000E717C3E49CFCE49DFDE49EFEE49FFF8CEF
:1008C000248D258E268F278002C208752E00D20C1B
:1008D0008B00752800C000120407D000200C0DE525
:1008E00028C4FCE6FD4CF61888038002A628052ED5
:1008F000B20CE52445254526452770D68803E52C0E
:100900007003752C0120051A200417E52E04FCC382
:10091000952C500E758220C0031203BDD003152CF8
:1009200080E930080E75822DC0031203BDD0031577
:100930002C8024E52E602030060E75822BC0031219
:1009400003BDD003152C800F30070C758220C00327
:100950001203BDD003152C20041EAC2C152CC3E5AE
:100960002E9C50273005047C3080027C208C82C075
:10097000031203BDD00380E2C3E52E952C5009E598
:100980002CC3952EF52C8003752C008B00AB2E15F7
:100990002EEB6022B20C200C0A08E6C4540FFB8B2D
:1009A0002880078603740F5BF528852882C0001213
:1009B00003D7D00080D7200403020451AB2C152CA0
:1009C000EB70030204517582201203BD80EE8A820F
:1009D0001203BD020451852982852A83220000006A
:00000001FF
